{
  "address": "0x722024c169Ed3B22804BDAb1B28F79d5fF2C95de",
  "abi": [
    {
      "inputs": [
        {
          "internalType": "address",
          "name": "gatekeeper",
          "type": "address"
        }
      ],
      "stateMutability": "nonpayable",
      "type": "constructor"
    },
    {
      "anonymous": false,
      "inputs": [
        {
          "indexed": false,
          "internalType": "address",
          "name": "_address",
          "type": "address"
        }
      ],
      "name": "Designated",
      "type": "event"
    },
    {
      "anonymous": false,
      "inputs": [
        {
          "indexed": false,
          "internalType": "address",
          "name": "_address",
          "type": "address"
        }
      ],
      "name": "Discharged",
      "type": "event"
    },
    {
      "anonymous": false,
      "inputs": [
        {
          "indexed": false,
          "internalType": "address",
          "name": "_address",
          "type": "address"
        }
      ],
      "name": "RoleRegistryCreated",
      "type": "event"
    },
    {
      "inputs": [],
      "name": "DESIGNATE_ROLE",
      "outputs": [
        {
          "internalType": "bytes32",
          "name": "",
          "type": "bytes32"
        }
      ],
      "stateMutability": "view",
      "type": "function"
    },
    {
      "inputs": [],
      "name": "ROLE_RETAILER",
      "outputs": [
        {
          "internalType": "bytes32",
          "name": "",
          "type": "bytes32"
        }
      ],
      "stateMutability": "view",
      "type": "function"
    },
    {
      "inputs": [
        {
          "internalType": "address",
          "name": "_address",
          "type": "address"
        }
      ],
      "name": "designate",
      "outputs": [],
      "stateMutability": "nonpayable",
      "type": "function"
    },
    {
      "inputs": [
        {
          "internalType": "address",
          "name": "_address",
          "type": "address"
        }
      ],
      "name": "discharge",
      "outputs": [],
      "stateMutability": "nonpayable",
      "type": "function"
    },
    {
      "inputs": [],
      "name": "gateKeeper",
      "outputs": [
        {
          "internalType": "contract GateKeeper",
          "name": "",
          "type": "address"
        }
      ],
      "stateMutability": "view",
      "type": "function"
    },
    {
      "inputs": [
        {
          "internalType": "uint256",
          "name": "_index",
          "type": "uint256"
        }
      ],
      "name": "getByIndex",
      "outputs": [
        {
          "internalType": "address",
          "name": "key",
          "type": "address"
        },
        {
          "internalType": "bool",
          "name": "hasTheRole",
          "type": "bool"
        }
      ],
      "stateMutability": "view",
      "type": "function"
    },
    {
      "inputs": [
        {
          "internalType": "address",
          "name": "_key",
          "type": "address"
        }
      ],
      "name": "getByKey",
      "outputs": [
        {
          "internalType": "address",
          "name": "key",
          "type": "address"
        },
        {
          "internalType": "bool",
          "name": "hasTheRole",
          "type": "bool"
        }
      ],
      "stateMutability": "view",
      "type": "function"
    },
    {
      "inputs": [],
      "name": "getIndexLength",
      "outputs": [
        {
          "internalType": "uint256",
          "name": "length",
          "type": "uint256"
        }
      ],
      "stateMutability": "view",
      "type": "function"
    },
    {
      "inputs": [],
      "name": "getRoleHolders",
      "outputs": [
        {
          "internalType": "address[]",
          "name": "allRoleHolders",
          "type": "address[]"
        }
      ],
      "stateMutability": "view",
      "type": "function"
    },
    {
      "inputs": [
        {
          "internalType": "address",
          "name": "_address",
          "type": "address"
        }
      ],
      "name": "hasRole",
      "outputs": [
        {
          "internalType": "bool",
          "name": "hasTheRole",
          "type": "bool"
        }
      ],
      "stateMutability": "view",
      "type": "function"
    },
    {
      "inputs": [],
      "name": "role",
      "outputs": [
        {
          "internalType": "bytes32",
          "name": "",
          "type": "bytes32"
        }
      ],
      "stateMutability": "pure",
      "type": "function"
    }
  ],
  "transactionHash": "0x2902553411be655886f17f227b192ae5b13f67da1a8d9e1c4e0f7a22cb62a904",
  "args": [
    "0x49a2b6A16714569Cbbc4b4D08b52b9271455d8A5"
  ],
  "numDeployments": 1,
  "solcInputHash": "74d01ba1355a9027c08cc2506d370f73",
  "bytecode": "0x608060405234801561001057600080fd5b506040516109dd3803806109dd83398101604081905261002f91610086565b600080546001600160a01b0319166001600160a01b03831617905560405130815281907fe1024fd8985d06ce8c9f997f972a1260bbbb007e7f7496825505aff3b18165e99060200160405180910390a150506100b6565b60006020828403121561009857600080fd5b81516001600160a01b03811681146100af57600080fd5b9392505050565b610918806100c56000396000f3fe608060405234801561001057600080fd5b50600436106100a95760003560e01c806345d61ded1161007157806345d61ded1461014957806349877038146101745780637ef09bca146101a5578063b43857e8146101e1578063d09200a3146101f8578063e1ba7d011461020d57600080fd5b80630231853a146100ae5780630a7519a3146100c357806310055c1d146100ee5780632d883a73146101045780634534169214610136575b600080fd5b6100c16100bc366004610750565b610215565b005b6100db6d44455349474e4154455f524f4c4560901b81565b6040519081526020015b60405180910390f35b6c2927a622afa922aa20a4a622a960991b6100db565b610117610112366004610779565b610485565b604080516001600160a01b0390931683529015156020830152016100e5565b6100c1610144366004610750565b6104fc565b60005461015c906001600160a01b031681565b6040516001600160a01b0390911681526020016100e5565b610117610182366004610750565b6001600160a01b038116600090815260016020526040902054909160ff90911690565b6101d16101b3366004610750565b6001600160a01b031660009081526001602052604090205460ff1690565b60405190151581526020016100e5565b6100db6c2927a622afa922aa20a4a622a960991b81565b610200610649565b6040516100e59190610792565b6002546100db565b6d44455349474e4154455f524f4c4560901b6040518060400160405280601b81526020017f53656e646572206e656564732044455349474e4154455f524f4c45000000000081525061026733836106ab565b819061028f5760405162461bcd60e51b815260040161028691906107df565b60405180910390fd5b506001600160a01b038316600090815260016020819052604090912001546103105760405162461bcd60e51b815260206004820152602e60248201527f54686973206164647265737320776173206e657665722064657369676e61746560448201526d6420746f207468697320726f6c6560901b6064820152608401610286565b60005b836001600160a01b03166002828154811061033057610330610834565b6000918252602090912001546001600160a01b03161461035c578061035481610860565b915050610313565b805b60025461036d9060019061087b565b8110156103f8576002610381826001610892565b8154811061039157610391610834565b600091825260209091200154600280546001600160a01b0390921691839081106103bd576103bd610834565b600091825260209091200180546001600160a01b0319166001600160a01b0392909216919091179055806103f081610860565b91505061035e565b50600280548061040a5761040a6108aa565b60008281526020808220600019908401810180546001600160a01b03191690559092019092556001600160a01b03861680835260018252604092839020805460ff1916905591519182527fa918a014a3cc4d384620aab101a9de9a018850704254ab6ce288864db9abd98b910160405180910390a150505050565b6000806002838154811061049b5761049b610834565b6000918252602082200154600280546001600160a01b03909216945060019291869081106104cb576104cb610834565b60009182526020808320909101546001600160a01b03168352820192909252604001902054919360ff909216925050565b6d44455349474e4154455f524f4c4560901b6040518060400160405280601b81526020017f53656e646572206e656564732044455349474e4154455f524f4c45000000000081525061054e33836106ab565b819061056d5760405162461bcd60e51b815260040161028691906107df565b506001600160a01b038316600090815260016020819052604090912001546105ec576002805460018082019092557f405787fa12a823e0f2b7631cc41b3ba8828b3321ca811111fa75cd3aa3bb5ace0180546001600160a01b0319166001600160a01b0386169081179091556000908152602082905260409020429101555b6001600160a01b038316600081815260016020818152604092839020805460ff191690921790915590519182527f6a7971839356e91af1f994a516a95eac2d3583cb6ba16b104843fcc927d77dae910160405180910390a1505050565b606060028054806020026020016040519081016040528092919081815260200182805480156106a157602002820191906000526020600020905b81546001600160a01b03168152600190910190602001808311610683575b5050505050905090565b600080546001600160a01b031615806107495750600054604051630dace25b60e31b81526001600160a01b0385811660048301523060248301526044820185905290911690636d6712d89060640160206040518083038186803b15801561071157600080fd5b505afa158015610725573d6000803e3d6000fd5b505050506040513d601f19601f8201168201806040525081019061074991906108c0565b9392505050565b60006020828403121561076257600080fd5b81356001600160a01b038116811461074957600080fd5b60006020828403121561078b57600080fd5b5035919050565b6020808252825182820181905260009190848201906040850190845b818110156107d35783516001600160a01b0316835292840192918401916001016107ae565b50909695505050505050565b600060208083528351808285015260005b8181101561080c578581018301518582016040015282016107f0565b8181111561081e576000604083870101525b50601f01601f1916929092016040019392505050565b634e487b7160e01b600052603260045260246000fd5b634e487b7160e01b600052601160045260246000fd5b60006000198214156108745761087461084a565b5060010190565b60008282101561088d5761088d61084a565b500390565b600082198211156108a5576108a561084a565b500190565b634e487b7160e01b600052603160045260246000fd5b6000602082840312156108d257600080fd5b8151801515811461074957600080fdfea2646970667358221220c82844f8d04b37525dc7693a537434b45bafa785ea7037051ba2bad5509f42ef64736f6c63430008090033",
  "devdoc": {
    "kind": "dev",
    "methods": {
      "designate(address)": {
        "details": "Gives the role managed by this role registry to `_address`. Access is limited by the ACL.",
        "params": {
          "_address": "The address to designate the role to."
        }
      },
      "discharge(address)": {
        "details": "Removes the role from `_address`. Access is limited by the ACL.",
        "params": {
          "_address": "The address to discharge fromn the role."
        }
      },
      "getByIndex(uint256)": {
        "details": "Returns the information for the key at index `_index`",
        "params": {
          "_index": "The index of the key in the key array"
        },
        "returns": {
          "key": "the information for the key on a certain index"
        }
      },
      "getByKey(address)": {
        "details": "Returns the information for the key `_key`",
        "params": {
          "_key": "The key to get the info for"
        },
        "returns": {
          "key": "the information for the key"
        }
      },
      "getIndexLength()": {
        "details": "Returns the length of the index array",
        "returns": {
          "length": "the amount of items in the index array"
        }
      },
      "getRoleHolders()": {
        "details": "Returns a list of all the holders of this role.",
        "returns": {
          "allRoleHolders": "array with all role holders' addresses"
        }
      },
      "hasRole(address)": {
        "details": "Checks if `_address` has given the role managed by this role registry",
        "params": {
          "_address": "The address to check for the role."
        },
        "returns": {
          "hasTheRole": "A boolean that is True if the address has the role."
        }
      },
      "role()": {
        "details": "Returns the role",
        "returns": {
          "_0": "A bytes32 role"
        }
      }
    },
    "title": "Lists all administrators",
    "version": 1
  },
  "userdoc": {
    "kind": "user",
    "methods": {
      "designate(address)": {
        "notice": "Gives the role to an address"
      },
      "discharge(address)": {
        "notice": "Removes the role from an address"
      },
      "getByIndex(uint256)": {
        "notice": "Returns the information for the key at a given index"
      },
      "getByKey(address)": {
        "notice": "Returns the information for the key"
      },
      "getIndexLength()": {
        "notice": "Returns the length of the index array"
      },
      "getRoleHolders()": {
        "notice": "Returns a list of all the holders of this role."
      },
      "hasRole(address)": {
        "notice": "Checks if an address has this role"
      }
    },
    "version": 1
  },
  "storageLayout": {
    "storage": [
      {
        "astId": 2246,
        "contract": "contracts/roles/RetailerRoleRegistry.sol:RetailerRoleRegistry",
        "label": "gateKeeper",
        "offset": 0,
        "slot": "0",
        "type": "t_contract(GateKeeper)1978"
      },
      {
        "astId": 2006,
        "contract": "contracts/roles/RetailerRoleRegistry.sol:RetailerRoleRegistry",
        "label": "roleHolders",
        "offset": 0,
        "slot": "1",
        "type": "t_mapping(t_address,t_struct(RoleHolderContainer)2001_storage)"
      },
      {
        "astId": 2009,
        "contract": "contracts/roles/RetailerRoleRegistry.sol:RetailerRoleRegistry",
        "label": "roleHoldersIndex",
        "offset": 0,
        "slot": "2",
        "type": "t_array(t_address)dyn_storage"
      }
    ],
    "types": {
      "t_address": {
        "encoding": "inplace",
        "label": "address",
        "numberOfBytes": "20"
      },
      "t_array(t_address)dyn_storage": {
        "base": "t_address",
        "encoding": "dynamic_array",
        "label": "address[]",
        "numberOfBytes": "32"
      },
      "t_bool": {
        "encoding": "inplace",
        "label": "bool",
        "numberOfBytes": "1"
      },
      "t_contract(GateKeeper)1978": {
        "encoding": "inplace",
        "label": "contract GateKeeper",
        "numberOfBytes": "20"
      },
      "t_mapping(t_address,t_struct(RoleHolderContainer)2001_storage)": {
        "encoding": "mapping",
        "key": "t_address",
        "label": "mapping(address => struct RoleRegistry.RoleHolderContainer)",
        "numberOfBytes": "32",
        "value": "t_struct(RoleHolderContainer)2001_storage"
      },
      "t_struct(RoleHolderContainer)2001_storage": {
        "encoding": "inplace",
        "label": "struct RoleRegistry.RoleHolderContainer",
        "members": [
          {
            "astId": 1998,
            "contract": "contracts/roles/RetailerRoleRegistry.sol:RetailerRoleRegistry",
            "label": "roleDesignated",
            "offset": 0,
            "slot": "0",
            "type": "t_bool"
          },
          {
            "astId": 2000,
            "contract": "contracts/roles/RetailerRoleRegistry.sol:RetailerRoleRegistry",
            "label": "creationDate",
            "offset": 0,
            "slot": "1",
            "type": "t_uint256"
          }
        ],
        "numberOfBytes": "64"
      },
      "t_uint256": {
        "encoding": "inplace",
        "label": "uint256",
        "numberOfBytes": "32"
      }
    }
  }
}