{
  "address": "0x5D99e1854f1C1c53e4E5f20f51A0225587434305",
  "abi": [
    {
      "inputs": [
        {
          "internalType": "contract GateKeeper",
          "name": "gateKeeper",
          "type": "address"
        },
        {
          "internalType": "contract SupplyChainRegistry",
          "name": "registry",
          "type": "address"
        }
      ],
      "stateMutability": "nonpayable",
      "type": "constructor"
    },
    {
      "anonymous": false,
      "inputs": [
        {
          "indexed": false,
          "internalType": "address",
          "name": "statemachine",
          "type": "address"
        }
      ],
      "name": "StateMachineCreated",
      "type": "event"
    },
    {
      "inputs": [],
      "name": "CREATE_STATEMACHINE_ROLE",
      "outputs": [
        {
          "internalType": "bytes32",
          "name": "",
          "type": "bytes32"
        }
      ],
      "stateMutability": "view",
      "type": "function"
    },
    {
      "inputs": [],
      "name": "UPDATE_UIFIELDDEFINITIONS_ROLE",
      "outputs": [
        {
          "internalType": "bytes32",
          "name": "",
          "type": "bytes32"
        }
      ],
      "stateMutability": "view",
      "type": "function"
    },
    {
      "inputs": [
        {
          "internalType": "string",
          "name": "Order_Number",
          "type": "string"
        },
        {
          "internalType": "string",
          "name": "ipfsFieldContainerHash",
          "type": "string"
        }
      ],
      "name": "create",
      "outputs": [],
      "stateMutability": "nonpayable",
      "type": "function"
    },
    {
      "inputs": [],
      "name": "gateKeeper",
      "outputs": [
        {
          "internalType": "contract GateKeeper",
          "name": "",
          "type": "address"
        }
      ],
      "stateMutability": "view",
      "type": "function"
    },
    {
      "inputs": [],
      "name": "getUIFieldDefinitionsHash",
      "outputs": [
        {
          "internalType": "string",
          "name": "",
          "type": "string"
        }
      ],
      "stateMutability": "view",
      "type": "function"
    },
    {
      "inputs": [
        {
          "internalType": "string",
          "name": "uiFieldDefinitionsHash",
          "type": "string"
        }
      ],
      "name": "setUIFieldDefinitionsHash",
      "outputs": [],
      "stateMutability": "nonpayable",
      "type": "function"
    }
  ],
  "transactionHash": "0xdd70d21433d9cbbdbdf17935e239e430fb86fee55e7ef50cbd96247419d1c46b",
  "args": [
    "0x49a2b6A16714569Cbbc4b4D08b52b9271455d8A5",
    "0xEBffD3345dF75cd720306a3d49313F9372e845E8"
  ],
  "numDeployments": 1,
  "solcInputHash": "74d01ba1355a9027c08cc2506d370f73",
  "bytecode": "0x608060405234801561001057600080fd5b506040516130ff3803806130ff83398101604081905261002f91610078565b600180546001600160a01b039384166001600160a01b031991821617909155600280549290931691161790556100b2565b6001600160a01b038116811461007557600080fd5b50565b6000806040838503121561008b57600080fd5b825161009681610060565b60208401519092506100a781610060565b809150509250929050565b61303e806100c16000396000f3fe60806040523480156200001157600080fd5b50600436106200006a5760003560e01c8063198e2b8a146200006f5780631f0f992a1462000088578063309c70cf14620000c3578063459b9af914620000e657806345d61ded14620000ff57806382f68683146200012c575b600080fd5b62000086620000803660046200081d565b62000143565b005b620000b07f5550444154455f55494649454c44444546494e4954494f4e535f524f4c45000081565b6040519081526020015b60405180910390f35b620000b0774352454154455f53544154454d414348494e455f524f4c4560401b81565b620000f0620004dd565b604051620000ba9190620008d8565b60015462000113906001600160a01b031681565b6040516001600160a01b039091168152602001620000ba565b620000866200013d366004620008ed565b62000577565b774352454154455f53544154454d414348494e455f524f4c4560401b60405180606001604052806025815260200162002fe460259139620001853383620005fc565b8190620001b05760405162461bcd60e51b8152600401620001a79190620008d8565b60405180910390fd5b5083518490620002035760405162461bcd60e51b815260206004820152601a60248201527f41204f726465725f4e756d6265722069732072657175697265640000000000006044820152606401620001a7565b6001546040516000916001600160a01b0316908790879084906200022790620006a8565b6200023694939291906200096b565b604051809103906000f08015801562000253573d6000803e3d6000fd5b5090506000816001600160a01b031663710613986040518163ffffffff1660e01b815260040160006040518083038186803b1580156200029257600080fd5b505afa158015620002a7573d6000803e3d6000fd5b505050506040513d6000823e601f3d908101601f19168201604052620002d1919081019062000a5c565b905060005b8151811015620004355760015482516001600160a01b039091169063be038478908290630ef9ae399086908690811062000314576200031462000b0d565b60200260200101516040518263ffffffff1660e01b81526004016200033b91815260200190565b60206040518083038186803b1580156200035457600080fd5b505afa15801562000369573d6000803e3d6000fd5b505050506040513d601f19601f820116820180604052508101906200038f919062000b23565b85858581518110620003a557620003a562000b0d565b60209081029190910101516040516001600160e01b031960e086901b1681526001600160a01b0393841660048201529290911660248301526044820152306064820152608401600060405180830381600087803b1580156200040657600080fd5b505af11580156200041b573d6000803e3d6000fd5b5050505080806200042c9062000b4e565b915050620002d6565b50600254604051635e48156960e11b81526001600160a01b0384811660048301529091169063bc902ad290602401600060405180830381600087803b1580156200047e57600080fd5b505af115801562000493573d6000803e3d6000fd5b50506040516001600160a01b03851681527f9133c0c22004f4e0d1b425e3f564b710f3fda1af39a2e9565a1ce53eda52f7889250602001905060405180910390a150505050505050565b606060008054620004ee906200092e565b80601f01602080910402602001604051908101604052809291908181526020018280546200051c906200092e565b80156200056d5780601f1062000541576101008083540402835291602001916200056d565b820191906000526020600020905b8154815290600101906020018083116200054f57829003601f168201915b5050505050905090565b7f5550444154455f55494649454c44444546494e4954494f4e535f524f4c4500006040518060600160405280602b815260200162002fb9602b9139620005be3383620005fc565b8190620005e05760405162461bcd60e51b8152600401620001a79190620008d8565b508251620005f6906000906020860190620006b6565b50505050565b6001546000906001600160a01b03161580620006a15750600154604051630dace25b60e31b81526001600160a01b0385811660048301523060248301526044820185905290911690636d6712d89060640160206040518083038186803b1580156200066657600080fd5b505afa1580156200067b573d6000803e3d6000fd5b505050506040513d601f19601f82011682018060405250810190620006a1919062000b78565b9392505050565b61241c8062000b9d83390190565b828054620006c4906200092e565b90600052602060002090601f016020900481019282620006e8576000855562000733565b82601f106200070357805160ff191683800117855562000733565b8280016001018555821562000733579182015b828111156200073357825182559160200191906001019062000716565b506200074192915062000745565b5090565b5b8082111562000741576000815560010162000746565b634e487b7160e01b600052604160045260246000fd5b604051601f8201601f1916810167ffffffffffffffff811182821017156200079e576200079e6200075c565b604052919050565b600082601f830112620007b857600080fd5b813567ffffffffffffffff811115620007d557620007d56200075c565b620007ea601f8201601f191660200162000772565b8181528460208386010111156200080057600080fd5b816020850160208301376000918101602001919091529392505050565b600080604083850312156200083157600080fd5b823567ffffffffffffffff808211156200084a57600080fd5b6200085886838701620007a6565b935060208501359150808211156200086f57600080fd5b506200087e85828601620007a6565b9150509250929050565b6000815180845260005b81811015620008b05760208185018101518683018201520162000892565b81811115620008c3576000602083870101525b50601f01601f19169290920160200192915050565b602081526000620006a1602083018462000888565b6000602082840312156200090057600080fd5b813567ffffffffffffffff8111156200091857600080fd5b6200092684828501620007a6565b949350505050565b600181811c908216806200094357607f821691505b602082108114156200096557634e487b7160e01b600052602260045260246000fd5b50919050565b6001600160a01b038516815260806020808301829052600091620009929084018762000888565b8381036040850152620009a6818762000888565b905083810360608501526000855481600182811c915080831680620009cc57607f831692505b868310811415620009eb57634e487b7160e01b85526022600452602485fd5b82865260208601955080801562000a0b576001811462000a1d5762000a4a565b60ff1985168752878701955062000a4a565b60008b81526020902060005b8581101562000a445781548982015290840190890162000a29565b88019650505b50939c9b505050505050505050505050565b6000602080838503121562000a7057600080fd5b825167ffffffffffffffff8082111562000a8957600080fd5b818501915085601f83011262000a9e57600080fd5b81518181111562000ab35762000ab36200075c565b8060051b915062000ac684830162000772565b818152918301840191848101908884111562000ae157600080fd5b938501935b8385101562000b015784518252938501939085019062000ae6565b98975050505050505050565b634e487b7160e01b600052603260045260246000fd5b60006020828403121562000b3657600080fd5b81516001600160a01b0381168114620006a157600080fd5b600060001982141562000b7157634e487b7160e01b600052601160045260246000fd5b5060010190565b60006020828403121562000b8b57600080fd5b81518015158114620006a157600080fdfe610140604052692927a622afa0a226a4a760b11b60809081526e2927a622afaba427a622a9a0a622a960891b60a05270524f4c455f434f4e474c4f4d455241544560781b60c0526c2927a622afa922aa20a4a622a960991b60e05268524f4c455f4157544160b81b61010052680a49e988abe82ae8ab60bb1b610120526200008c90600b906006620007b0565b503480156200009a57600080fd5b506040516200241c3803806200241c833981016040819052620000bd9162000960565b600080546001600160a01b0319166001600160a01b0386161790558251620000ed90600d90602086019062000800565b5081516200010390600790602085019062000800565b5080516200011990600c90602084019062000800565b50620001246200012e565b5050505062000a4f565b620001486000805160206200239c8339815191526200046f565b620001616a15d3d3d317d51154d5115160aa1b6200046f565b6200017b600080516020620023fc8339815191526200046f565b620001946a15d3d3d317d1d49051115160aa1b6200046f565b620001ae600080516020620023dc8339815191526200046f565b620001c86000805160206200237c8339815191526200046f565b620001e2600080516020620023bc8339815191526200046f565b6200020b6000805160206200239c8339815191526a15d3d3d317d51154d5115160aa1b6200052d565b620002346a15d3d3d317d51154d5115160aa1b600080516020620023fc8339815191526200052d565b62000261600080516020620023fc8339815191526e13d491115497d0d05390d153131151608a1b6200052d565b6200028b600080516020620023fc833981519152600080516020620023bc8339815191526200052d565b620002b36a15d3d3d317d51154d5115160aa1b6a15d3d3d317d1d49051115160aa1b6200052d565b620002dc6a15d3d3d317d1d49051115160aa1b600080516020620023dc8339815191526200052d565b62000306600080516020620023dc8339815191526000805160206200237c8339815191526200052d565b6200032f6000805160206200237c8339815191526a15d3d3d317d51154d5115160aa1b6200052d565b62000359600080516020620023dc833981519152600080516020620023bc8339815191526200052d565b620003866000805160206200239c8339815191526e2927a622afaba427a622a9a0a622a960891b6200060d565b620003ac6a15d3d3d317d51154d5115160aa1b68524f4c455f4157544160b81b6200060d565b620003d26a15d3d3d317d1d49051115160aa1b680a49e988abe82ae8ab60bb1b6200060d565b620003fd600080516020620023dc8339815191526c2927a622afa922aa20a4a622a960991b6200060d565b620004286000805160206200237c8339815191526c2927a622afa922aa20a4a622a960991b6200060d565b62000453600080516020620023bc8339815191526c2927a622afa922aa20a4a622a960991b6200060d565b6200046d6000805160206200239c83398151915262000690565b565b60008181526002602052604090205460ff1615620004e05760405162461bcd60e51b815260206004820152602360248201527f746869732073746174652068617320616c7265616479206265656e20637265616044820152621d195960ea1b60648201526084015b60405180910390fd5b6000818152600260205260408120805460ff191660019081179091556003805491820181559091527fc2575a0e9e593c00f959f8c92f12db2869c3395a3b0502d05e2516446f71f85b0155565b600082815260026020526040902054829060ff16620005895760405162461bcd60e51b815260206004820152602260248201526000805160206200235c833981519152604482015261195d60f21b6064820152608401620004d7565b600082815260026020526040902054829060ff16620005e55760405162461bcd60e51b815260206004820152602260248201526000805160206200235c833981519152604482015261195d60f21b6064820152608401620004d7565b5050600091825260026020908152604083206005018054600181018255908452922090910155565b600082815260026020526040902054829060ff16620006695760405162461bcd60e51b815260206004820152602260248201526000805160206200235c833981519152604482015261195d60f21b6064820152608401620004d7565b50600091825260026020818152604084209091018054600181018255908452922090910155565b60008181526002602052604090205460ff16620007035760405162461bcd60e51b815260206004820152602a60248201527f74686520696e697469616c20737461746520686173206e6f74206265656e20636044820152691c99585d1959081e595d60b21b6064820152608401620004d7565b60045415620007ab5760405162461bcd60e51b815260206004820152606160248201527f7468652063757272656e742073746174652068617320616c726561647920626560448201527f656e207365742c20736f20796f752063616e6e6f7420636f6e6669677572652060648201527f74686520696e697469616c20737461746520616e64206f7665727269646520696084820152601d60fa1b60a482015260c401620004d7565b600455565b828054828255906000526020600020908101928215620007ee579160200282015b82811115620007ee578251825591602001919060010190620007d1565b50620007fc9291506200087c565b5090565b8280546200080e9062000a12565b90600052602060002090601f016020900481019282620008325760008555620007ee565b82601f106200084d57805160ff1916838001178555620007ee565b82800160010185558215620007ee5791820182811115620007ee578251825591602001919060010190620007d1565b5b80821115620007fc57600081556001016200087d565b634e487b7160e01b600052604160045260246000fd5b600082601f830112620008bb57600080fd5b81516001600160401b0380821115620008d857620008d862000893565b604051601f8301601f19908116603f0116810190828211818310171562000903576200090362000893565b816040528381526020925086838588010111156200092057600080fd5b600091505b8382101562000944578582018301518183018401529082019062000925565b83821115620009565760008385830101525b9695505050505050565b600080600080608085870312156200097757600080fd5b84516001600160a01b03811681146200098f57600080fd5b60208601519094506001600160401b0380821115620009ad57600080fd5b620009bb88838901620008a9565b94506040870151915080821115620009d257600080fd5b620009e088838901620008a9565b93506060870151915080821115620009f757600080fd5b5062000a0687828801620008a9565b91505092959194509250565b600181811c9082168062000a2757607f821691505b6020821081141562000a4957634e487b7160e01b600052602260045260246000fd5b50919050565b6118fd8062000a5f6000396000f3fe608060405234801561001057600080fd5b50600436106102065760003560e01c8063910fd10a1161011a578063b43857e8116100ad578063ef120a6e1161007c578063ef120a6e146104c2578063f27db0d3146104ca578063f4a979a3146104df578063fcbb5907146104f2578063fd2072921461051957600080fd5b8063b43857e814610464578063b949d9921461047b578063c8691b2a1461049b578063d391014b146104ae57600080fd5b8063a65ed23d116100e9578063a65ed23d146103cd578063a7a38f0b146103f4578063abd3fa1614610436578063b32f20391461044957600080fd5b8063910fd10a14610398578063931e0103146103a0578063a4ddb071146103bd578063a54df332146103c557600080fd5b806345d61ded1161019d57806356c57bd11161016c57806356c57bd1146103305780635878be5514610343578063694f11051461036a578063710613981461037d57806390ee9ff91461038557600080fd5b806345d61ded146102e0578063489f19eb1461030b5780634de6740e146103205780635478f4681461032857600080fd5b80632fac5b40116101d95780632fac5b4014610297578063304b1bd1146102b0578063378aa701146102c35780633e44694f146102cb57600080fd5b806309648a9d1461020b5780630d1d3bfa1461023857806319386ee01461025b5780632e2bc0d514610282575b600080fd5b61021e610219366004611454565b610532565b60405161022f9594939291906114a8565b60405180910390f35b61024d6a15d3d3d317d51154d5115160aa1b81565b60405190815260200161022f565b61024d7f574f4f4c5f544553545f47524144455f464545444241434b000000000000000081565b61028a61081a565b60405161022f9190611534565b61024d6e2927a622afaba427a622a9a0a622a960891b81565b61024d6102be366004611454565b610880565b61024d6108a1565b6102d3610921565b60405161022f9190611547565b6000546102f3906001600160a01b031681565b6040516001600160a01b03909116815260200161022f565b61031e61031936600461163f565b610949565b005b6102d3610975565b60015461024d565b61031e61033e3660046116a3565b610a03565b61024d7f52455441494c5f4f524445525f554e46554c46494c4c4544000000000000000081565b61031e610378366004611454565b610a1a565b61028a610c4b565b61024d68524f4c455f4157544160b81b81565b6102d3610ca1565b61024d7214915510525317d3d491115497d4131050d151606a1b81565b61028a610cae565b6102d3610d04565b61024d7f57484f4c4553414c455f4f524445525f46554c46494c4c45440000000000000081565b610407610402366004611454565b610d11565b60405161022f949392919093845260208401929092526001600160a01b03166040830152606082015260800190565b61024d680a49e988abe82ae8ab60bb1b81565b61024d70524f4c455f434f4e474c4f4d455241544560781b81565b61024d6c2927a622afa922aa20a4a622a960991b81565b61024d7514915510525317d3d491115497d1955311925313115160521b81565b6104076104a9366004611454565b610d54565b61024d692927a622afa0a226a4a760b11b81565b6102d3610e56565b61024d6a15d3d3d317d1d49051115160aa1b81565b61031e6104ed3660046116e0565b610edf565b61024d7f5550444154455f49504653434f4e5441494e4552484153485f524f4c4500000081565b61024d6e13d491115497d0d05390d153131151608a1b81565b60008181526002602052604081206005546060918291829185918290819067ffffffffffffffff8111156105685761056861159c565b604051908082528060200260200182016040528015610591578160200160208202803683370190505b50905060005b60055481101561069257600260008b81526020019081526020016000206001016000600583815481106105cc576105cc61171d565b6000918252602080832060088304015460079092166004026101000a90910460e01b6001600160e01b031916835282019290925260400190205460ff161561068057600581815481106106215761062161171d565b90600052602060002090600891828204019190066004029054906101000a900460e01b828460ff16815181106106595761065961171d565b6001600160e01b03199092166020928302919091019091015261067d600184611749565b92505b8061068a8161176e565b915050610597565b5060008260ff1667ffffffffffffffff8111156106b1576106b161159c565b6040519080825280602002602001820160405280156106da578160200160208202803683370190505b50905060005b8360ff16811015610742578281815181106106fd576106fd61171d565b60200260200101518282815181106107175761071761171d565b6001600160e01b0319909216602092830291909101909101528061073a8161176e565b9150506106e0565b50898460050185600201838760060160009054906101000a900460e01b838054806020026020016040519081016040528092919081815260200182805480156107aa57602002820191906000526020600020905b815481526020019060010190808311610796575b50505050509350828054806020026020016040519081016040528092919081815260200182805480156107fc57602002820191906000526020600020905b8154815260200190600101908083116107e8575b50505050509250985098509850985098505050505091939590929450565b60045460009081526002602090815260409182902060050180548351818402810184019094528084526060939283018282801561087657602002820191906000526020600020905b815481526020019060010190808311610862575b5050505050905090565b600b818154811061089057600080fd5b600091825260209091200154905081565b60045460009081526002602052604081205460ff1661091a5760405162461bcd60e51b815260206004820152602a60248201527f74686520696e697469616c20737461746520686173206e6f74206265656e20636044820152691c99585d1959081e595d60b21b60648201526084015b60405180910390fd5b5060045490565b6060600d60405160200161093591906117c4565b604051602081830303815290604052905090565b815161095c90600d9060208501906113b1565b5080516109709060079060208401906113b1565b505050565b600c805461098290611789565b80601f01602080910402602001604051908101604052809291908181526020018280546109ae90611789565b80156109fb5780601f106109d0576101008083540402835291602001916109fb565b820191906000526020600020905b8154815290600101906020018083116109de57829003601f168201915b505050505081565b8051610a169060079060208401906113b1565b5050565b600354610a7a5760405162461bcd60e51b815260206004820152602860248201527f746869732073746174656d616368696e6520686173206e6f74206265656e2073604482015267195d1d5c081e595d60c21b6064820152608401610911565b80610a8c610a866108a1565b82610f5f565b600480548382556000848152600260205260408120919291909101905b8154811015610b1457610b028386848481548110610ac957610ac961171d565b90600052602060002090600491828204019190066008029054906101000a90048015611435021767ffffffffffffffff1663ffffffff16565b80610b0c8161176e565b915050610aa9565b506040805160808101825283815260208082018781523383850181815242606080870191825260018054808201825560009190915296517fb10e2d527612073b26eecdfd717e6a320cf44b4afac2b0732d9fcbe2b7fa0cf660049889029081019190915594517fb10e2d527612073b26eecdfd717e6a320cf44b4afac2b0732d9fcbe2b7fa0cf786015591517fb10e2d527612073b26eecdfd717e6a320cf44b4afac2b0732d9fcbe2b7fa0cf8850180546001600160a01b0319166001600160a01b03909216919091179055517fb10e2d527612073b26eecdfd717e6a320cf44b4afac2b0732d9fcbe2b7fa0cf99093019290925592548451938452918301869052928201527f483a31c379a4b707332853662276a3424ec44f0ccbfc20d78fd9d143694f7669910160405180910390a150505050565b6060600b8054806020026020016040519081016040528092919081815260200182805480156108765760200282019190600052602060002090815481526020019060010190808311610862575050505050905090565b6007805461098290611789565b606060038054806020026020016040519081016040528092919081815260200182805480156108765760200282019190600052602060002090815481526020019060010190808311610862575050505050905090565b600d805461098290611789565b60018181548110610d2157600080fd5b60009182526020909120600490910201805460018201546002830154600390930154919350916001600160a01b03169084565b60008080806001548510610da05760405162461bcd60e51b8152602060048201526013602482015272496e646578206f7574206f6620626f756e647360681b6044820152606401610911565b60018581548110610db357610db361171d565b90600052602060002090600402016000015460018681548110610dd857610dd861171d565b90600052602060002090600402016001015460018781548110610dfd57610dfd61171d565b906000526020600020906004020160020160009054906101000a90046001600160a01b031660018881548110610e3557610e3561171d565b90600052602060002090600402016003015493509350935093509193509193565b606060078054610e6590611789565b80601f0160208091040260200160405190810160405280929190818152602001828054610e9190611789565b80156108765780601f10610eb357610100808354040283529160200191610876565b820191906000526020600020905b815481529060010190602001808311610ec157509395945050505050565b60008281526009602052604090205460ff16610f40576008805460018181019092557ff3f7a9fe364faab93b216da50a3214154f22a0a2b415b23a84c8169e8b636ee3018390556000838152600960205260409020805460ff191690911790555b6000828152600a602090815260409091208251610970928401906113b1565b60008281526002602052604090205460ff16610fdb5760405162461bcd60e51b815260206004820152603560248201527f7468652066726f6d20737461746520686173206e6f74206265656e20636f6e666044820152741a59dd5c9959081a5b881d1a1a5cc81bd89a9958dd605a1b6064820152608401610911565b60008181526002602052604090205460ff166110555760405162461bcd60e51b815260206004820152603360248201527f74686520746f20737461746520686173206e6f74206265656e20636f6e6669676044820152721d5c9959081a5b881d1a1a5cc81bd89a9958dd606a1b6064820152608401610911565b61105f82826111a0565b6110e35760405162461bcd60e51b815260206004820152604960248201527f74686520726571756573746564206e657874207374617465206973206e6f742060448201527f616e20616c6c6f776564206e65787420737461746520666f72207468697320746064820152683930b739b4ba34b7b760b91b608482015260a401610911565b6110ec8161124c565b6111965760405162461bcd60e51b815260206004820152606960248201527f7468652073656e646572206f662074686973207472616e73616374696f6e206460448201527f6f6573206e6f742068617665206120726f6c65207468617420616c6c6f77732060648201527f7472616e736974696f6e206265747765656e207468652066726f6d20616e6420608482015268746f2073746174657360b81b60a482015260c401610911565b610a1682826112c1565b6000828152600260205260408120600501815b815481101561124457604080516020810186905201604051602081830303815290604052805190602001208282815481106111f0576111f061171d565b906000526020600020015460405160200161120d91815260200190565b6040516020818303038152906040528051906020012014156112325760019250611244565b8061123c8161176e565b9150506111b3565b505092915050565b6000818152600260208190526040822001805461126857600191505b60005b81548110156112ba5761129a3383838154811061128a5761128a61171d565b906000526020600020015461130c565b156112a857600192506112ba565b806112b28161176e565b91505061126b565b5050919050565b6000818152600260205260408120600301905b8154811015611306576112f48484848481548110610ac957610ac961171d565b806112fe8161176e565b9150506112d4565b50505050565b600080546001600160a01b031615806113aa5750600054604051630dace25b60e31b81526001600160a01b0385811660048301523060248301526044820185905290911690636d6712d89060640160206040518083038186803b15801561137257600080fd5b505afa158015611386573d6000803e3d6000fd5b505050506040513d601f19601f820116820180604052508101906113aa919061188f565b9392505050565b8280546113bd90611789565b90600052602060002090601f0160209004810192826113df5760008555611425565b82601f106113f857805160ff1916838001178555611425565b82800160010185558215611425579182015b8281111561142557825182559160200191906001019061140a565b5061143192915061143f565b5090565b61143d6118b1565b565b5b808211156114315760008155600101611440565b60006020828403121561146657600080fd5b5035919050565b600081518084526020808501945080840160005b8381101561149d57815187529582019590820190600101611481565b509495945050505050565b8581526000602060a0818401526114c260a084018861146d565b83810360408501526114d4818861146d565b8481036060860152865180825283880192509083019060005b818110156115135783516001600160e01b031916835292840192918401916001016114ed565b505080935050505063ffffffff60e01b831660808301529695505050505050565b6020815260006113aa602083018461146d565b600060208083528351808285015260005b8181101561157457858101830151858201604001528201611558565b81811115611586576000604083870101525b50601f01601f1916929092016040019392505050565b634e487b7160e01b600052604160045260246000fd5b600082601f8301126115c357600080fd5b813567ffffffffffffffff808211156115de576115de61159c565b604051601f8301601f19908116603f011681019082821181831017156116065761160661159c565b8160405283815286602085880101111561161f57600080fd5b836020870160208301376000602085830101528094505050505092915050565b6000806040838503121561165257600080fd5b823567ffffffffffffffff8082111561166a57600080fd5b611676868387016115b2565b9350602085013591508082111561168c57600080fd5b50611699858286016115b2565b9150509250929050565b6000602082840312156116b557600080fd5b813567ffffffffffffffff8111156116cc57600080fd5b6116d8848285016115b2565b949350505050565b600080604083850312156116f357600080fd5b82359150602083013567ffffffffffffffff81111561171157600080fd5b611699858286016115b2565b634e487b7160e01b600052603260045260246000fd5b634e487b7160e01b600052601160045260246000fd5b600060ff821660ff84168060ff0382111561176657611766611733565b019392505050565b600060001982141561178257611782611733565b5060010190565b600181811c9082168061179d57607f821691505b602082108114156117be57634e487b7160e01b600052602260045260246000fd5b50919050565b7f6469643a64656d6f3a737570706c79636861696e66696e616e63653a0000000081526000601c6000845481600182811c91508083168061180657607f831692505b602080841082141561182657634e487b7160e01b86526022600452602486fd5b81801561183a576001811461184f57611880565b60ff1986168a890152848a0188019650611880565b60008b81526020902060005b868110156118765781548c82018b015290850190830161185b565b505087858b010196505b50949998505050505050505050565b6000602082840312156118a157600080fd5b815180151581146113aa57600080fd5b634e487b7160e01b600052605160045260246000fdfea2646970667358221220affb6f02e9a614494cd7d0d8c9949bdc0a2a376f5450f17fb9a3935feea6aaa664736f6c6343000809003374686520737461746520686173206e6f74206265656e2063726561746564207952455441494c5f4f524445525f554e46554c46494c4c4544000000000000000057484f4c4553414c455f4f524445525f46554c46494c4c45440000000000000052455441494c5f4f524445525f46554c46494c4c45440000000000000000000052455441494c5f4f524445525f504c4143454400000000000000000000000000574f4f4c5f544553545f47524144455f464545444241434b000000000000000053656e646572206e65656473205550444154455f55494649454c44444546494e4954494f4e535f524f4c4553656e646572206e65656473204352454154455f53544154454d414348494e455f524f4c45a2646970667358221220dc2de6d1b91ceb43d9af458a03032de9bc023769003aee9768c976138e0ff07264736f6c63430008090033",
  "devdoc": {
    "kind": "dev",
    "methods": {
      "create(string,string)": {
        "details": "Factory method to create a new supplychain. Emits StateMachineCreated event.",
        "params": {
          "Order_Number": "Unique Identification Number",
          "ipfsFieldContainerHash": "ipfs hash of supplychain metadata"
        }
      },
      "setUIFieldDefinitionsHash(string)": {
        "params": {
          "uiFieldDefinitionsHash": "value to assign to _uiFieldDefinitionsHash"
        }
      }
    },
    "title": "Factory contract for supplychain state machines",
    "version": 1
  },
  "userdoc": {
    "kind": "user",
    "methods": {
      "create(string,string)": {
        "notice": "Create new supplychain"
      },
      "getUIFieldDefinitionsHash()": {
        "notice": "Retrieves the value of `_uiFieldDefinitionsHash`"
      },
      "setUIFieldDefinitionsHash(string)": {
        "notice": "Sets the value of `_uiFieldDefinitionsHash`"
      }
    },
    "version": 1
  },
  "storageLayout": {
    "storage": [
      {
        "astId": 9780,
        "contract": "contracts/supplychain/SupplyChainFactory.sol:SupplyChainFactory",
        "label": "_uiFieldDefinitionsHash",
        "offset": 0,
        "slot": "0",
        "type": "t_string_storage"
      },
      {
        "astId": 2246,
        "contract": "contracts/supplychain/SupplyChainFactory.sol:SupplyChainFactory",
        "label": "gateKeeper",
        "offset": 0,
        "slot": "1",
        "type": "t_contract(GateKeeper)1978"
      },
      {
        "astId": 4317,
        "contract": "contracts/supplychain/SupplyChainFactory.sol:SupplyChainFactory",
        "label": "_registry",
        "offset": 0,
        "slot": "2",
        "type": "t_contract(StateMachineRegistry)4494"
      }
    ],
    "types": {
      "t_contract(GateKeeper)1978": {
        "encoding": "inplace",
        "label": "contract GateKeeper",
        "numberOfBytes": "20"
      },
      "t_contract(StateMachineRegistry)4494": {
        "encoding": "inplace",
        "label": "contract StateMachineRegistry",
        "numberOfBytes": "20"
      },
      "t_string_storage": {
        "encoding": "bytes",
        "label": "string",
        "numberOfBytes": "32"
      }
    }
  }
}