{
  "address": "0xEBffD3345dF75cd720306a3d49313F9372e845E8",
  "abi": [
    {
      "inputs": [
        {
          "internalType": "address",
          "name": "gateKeeper",
          "type": "address"
        }
      ],
      "stateMutability": "nonpayable",
      "type": "constructor"
    },
    {
      "anonymous": false,
      "inputs": [
        {
          "indexed": false,
          "internalType": "address",
          "name": "statemachine",
          "type": "address"
        }
      ],
      "name": "StateMachineRegistered",
      "type": "event"
    },
    {
      "inputs": [],
      "name": "INSERT_STATEMACHINE_ROLE",
      "outputs": [
        {
          "internalType": "bytes32",
          "name": "",
          "type": "bytes32"
        }
      ],
      "stateMutability": "view",
      "type": "function"
    },
    {
      "inputs": [],
      "name": "gateKeeper",
      "outputs": [
        {
          "internalType": "contract GateKeeper",
          "name": "",
          "type": "address"
        }
      ],
      "stateMutability": "view",
      "type": "function"
    },
    {
      "inputs": [
        {
          "internalType": "uint256",
          "name": "index",
          "type": "uint256"
        }
      ],
      "name": "getByIndex",
      "outputs": [
        {
          "internalType": "address",
          "name": "key",
          "type": "address"
        },
        {
          "internalType": "address",
          "name": "contractAddress",
          "type": "address"
        }
      ],
      "stateMutability": "view",
      "type": "function"
    },
    {
      "inputs": [
        {
          "internalType": "address",
          "name": "someKey",
          "type": "address"
        }
      ],
      "name": "getByKey",
      "outputs": [
        {
          "internalType": "address",
          "name": "key",
          "type": "address"
        },
        {
          "internalType": "address",
          "name": "contractAddress",
          "type": "address"
        }
      ],
      "stateMutability": "view",
      "type": "function"
    },
    {
      "inputs": [],
      "name": "getIndex",
      "outputs": [
        {
          "internalType": "address[]",
          "name": "index",
          "type": "address[]"
        }
      ],
      "stateMutability": "view",
      "type": "function"
    },
    {
      "inputs": [],
      "name": "getIndexLength",
      "outputs": [
        {
          "internalType": "uint256",
          "name": "length",
          "type": "uint256"
        }
      ],
      "stateMutability": "view",
      "type": "function"
    },
    {
      "inputs": [
        {
          "internalType": "address",
          "name": "statemachine",
          "type": "address"
        }
      ],
      "name": "insert",
      "outputs": [],
      "stateMutability": "nonpayable",
      "type": "function"
    }
  ],
  "transactionHash": "0x487c03a8df7a1a01ea18c90a0ff517627f822e58510afeb2c165430a7262d7d2",
  "args": [
    "0x49a2b6A16714569Cbbc4b4D08b52b9271455d8A5"
  ],
  "numDeployments": 1,
  "solcInputHash": "74d01ba1355a9027c08cc2506d370f73",
  "bytecode": "0x608060405234801561001057600080fd5b506040516105e33803806105e383398101604081905261002f91610054565b600080546001600160a01b0319166001600160a01b0392909216919091179055610084565b60006020828403121561006657600080fd5b81516001600160a01b038116811461007d57600080fd5b9392505050565b610550806100936000396000f3fe608060405234801561001057600080fd5b506004361061007d5760003560e01c8063498770381161005b578063498770381461011557806381045ead14610144578063bc902ad214610159578063e1ba7d011461016e57600080fd5b806319357f6b146100825780632d883a73146100b757806345d61ded146100ea575b600080fd5b6100a477494e534552545f53544154454d414348494e455f524f4c4560401b81565b6040519081526020015b60405180910390f35b6100ca6100c53660046103d9565b610176565b604080516001600160a01b039384168152929091166020830152016100ae565b6000546100fd906001600160a01b031681565b6040516001600160a01b0390911681526020016100ae565b6100ca6101233660046103f2565b6001600160a01b038082166000908152600160205260409020549192911690565b61014c6101ce565b6040516100ae919061041b565b61016c6101673660046103f2565b610230565b005b6002546100a4565b6000806101c56002848154811061018f5761018f610468565b6000918252602090912001546001600160a01b03166001600160a01b038082166000908152600160205260409020549192911690565b91509150915091565b6060600280548060200260200160405190810160405280929190818152602001828054801561022657602002820191906000526020600020905b81546001600160a01b03168152600190910190602001808311610208575b5050505050905090565b77494e534552545f53544154454d414348494e455f524f4c4560401b6040518060600160405280602581526020016104f66025913961026f3383610334565b81906102975760405162461bcd60e51b815260040161028e919061047e565b60405180910390fd5b506001600160a01b038316600081815260016020818152604080842080546001600160a01b031990811687179091556002805494850181559094527f405787fa12a823e0f2b7631cc41b3ba8828b3321ca811111fa75cd3aa3bb5ace90920180549093168417909255519182527fc3a7a2bf484e19fc97d2833ddd72ce199320147e7a660b28f9d1be4e868c4913910160405180910390a1505050565b600080546001600160a01b031615806103d25750600054604051630dace25b60e31b81526001600160a01b0385811660048301523060248301526044820185905290911690636d6712d89060640160206040518083038186803b15801561039a57600080fd5b505afa1580156103ae573d6000803e3d6000fd5b505050506040513d601f19601f820116820180604052508101906103d291906104d3565b9392505050565b6000602082840312156103eb57600080fd5b5035919050565b60006020828403121561040457600080fd5b81356001600160a01b03811681146103d257600080fd5b6020808252825182820181905260009190848201906040850190845b8181101561045c5783516001600160a01b031683529284019291840191600101610437565b50909695505050505050565b634e487b7160e01b600052603260045260246000fd5b600060208083528351808285015260005b818110156104ab5785810183015185820160400152820161048f565b818111156104bd576000604083870101525b50601f01601f1916929092016040019392505050565b6000602082840312156104e557600080fd5b815180151581146103d257600080fdfe53656e646572206e6565647320494e534552545f53544154454d414348494e455f524f4c45a2646970667358221220bf32d64e2df598228efc7c7bc1eaa0fc9ceba0a268746092b710f30c81f8376d64736f6c63430008090033",
  "devdoc": {
    "kind": "dev",
    "methods": {
      "getIndex()": {
        "returns": {
          "index": "an array with the addresses of all statemachines"
        }
      },
      "getIndexLength()": {
        "details": "Returns the length of the state machine index",
        "returns": {
          "length": "the amount of items in the state machine index"
        }
      },
      "insert(address)": {
        "details": "Emits the StateMachineRegistered event after the state machine has been included to the registry",
        "params": {
          "statemachine": "the state machine's address"
        }
      }
    },
    "title": "Registry contract for supplychain state machines",
    "version": 1
  },
  "userdoc": {
    "kind": "user",
    "methods": {
      "getIndex()": {
        "notice": "Retrieves the state machine index"
      },
      "getIndexLength()": {
        "notice": "Returns the length of the state machine index"
      },
      "insert(address)": {
        "notice": "Inserts a statemachine into the registry"
      }
    },
    "version": 1
  },
  "storageLayout": {
    "storage": [
      {
        "astId": 2246,
        "contract": "contracts/supplychain/SupplyChainRegistry.sol:SupplyChainRegistry",
        "label": "gateKeeper",
        "offset": 0,
        "slot": "0",
        "type": "t_contract(GateKeeper)1978"
      },
      {
        "astId": 4390,
        "contract": "contracts/supplychain/SupplyChainRegistry.sol:SupplyChainRegistry",
        "label": "_stateMachines",
        "offset": 0,
        "slot": "1",
        "type": "t_mapping(t_address,t_contract(StateMachine)4300)"
      },
      {
        "astId": 4393,
        "contract": "contracts/supplychain/SupplyChainRegistry.sol:SupplyChainRegistry",
        "label": "_stateMachineIndex",
        "offset": 0,
        "slot": "2",
        "type": "t_array(t_address)dyn_storage"
      }
    ],
    "types": {
      "t_address": {
        "encoding": "inplace",
        "label": "address",
        "numberOfBytes": "20"
      },
      "t_array(t_address)dyn_storage": {
        "base": "t_address",
        "encoding": "dynamic_array",
        "label": "address[]",
        "numberOfBytes": "32"
      },
      "t_contract(GateKeeper)1978": {
        "encoding": "inplace",
        "label": "contract GateKeeper",
        "numberOfBytes": "20"
      },
      "t_contract(StateMachine)4300": {
        "encoding": "inplace",
        "label": "contract StateMachine",
        "numberOfBytes": "20"
      },
      "t_mapping(t_address,t_contract(StateMachine)4300)": {
        "encoding": "mapping",
        "key": "t_address",
        "label": "mapping(address => contract StateMachine)",
        "numberOfBytes": "32",
        "value": "t_contract(StateMachine)4300"
      }
    }
  }
}